S01200004772697A7A6C794F6E652E73726563F5
S11300000C9438000C9455000C9455000C94550035
S11300100C9455000C9455000C9455000C94550008
S11300200C9455000C9455000C9455000C945500F8
S11300300C9455000C94AB010C9455000C94550091
S11300400C9455000C9455000C9455000C945500D8
S11300500C940D030C9455000C9455000C9455000D
S11300600C9455000C9455000C9455000C945500B8
S113007011241FBECFEFD0E1DEBFCDBF14E0A0E05E
S1130080B1E0E4E8F6E202C005900D92A234B107B3
S1130090D9F72BE0A2E4B4E001C01D92A636B20762
S11300A0E1F70E942A030C9440130C94000084E0AE
S11300B091E00E942C020E944F050E944C030E9472
S11300C0430680E00E94B7030E944F050E944C0340
S11300D088E391E00E942C028DB79EB70E945302E0
S11300E081E491E00E942C028BE296E00E9453028C
S11300F08AE491E00E942C0287E494E00E94530277
S113010089E094E00E942C0200E010E0C091AE0669
S11301101092AE06D091AD061092AD06C11102C088
S1130120DD2391F080E591E00E942C028C2F0E9447
S1130130390284E691E00E942C028D2F0E9439023C
S113014089E094E00E942C02111116C0C0FF06C081
S11301508FEB0E94850100E011E0D8CFC2FFD6CF1B
S1130160E0E0F1E087EC80838FEB818380EC828395
S113017089EF838314E0CACF1130C9F5DD23E1F0A0
S11301800430D0F400FF02C0E1E001C0EAE080E006
S113019005C0D0FD05C0EF5FD6958F5F8830C8F3EA
S11301A0802F90E0F0E0E757FE4F2081FC01E05003
S11301B0FF4F20830F5FAACFC1FF05C08FEB0E94C2
S11301C0850100E0A3CFC0FF0BC0E0E0F1E08FEBBE
S11301D08083818382EC828380EC838313E096CFD7
S11301E0C2FF94CF80E00E94440114E08FCF14300A
S11301F009F48CCF0E9416129C019091AB069923AE
S113020071F08FE691E00E942C028091AB060E946F
S113021039020E94080380E00E94B7041FC0213DF8
S11302203A48E4F0C7E4D4E06D858C850E945F0110
S11302306D858C8570E090E00E94E90F80E891E084
S11302400E942C026091AF067091B0068091B106B5
S11302509091B2060E9496020E9408030E944C03E9
S113026011E054CF1092B3068FEF88B98CEE8BB99E
S113027082EC88B9E0E0F1E080838FEA818380EC4E
S113028082838BEA83830895A0E0B1E097EC9C938A
S11302909FEB11969C931197E82FE295EF70F0E095
S11302A0ED56FE4F908112969C9312978F70E82F13
S11302B0F0E0E657FE4F808113968C930895E82F63
S11302C0EF70F0E0ED56FE4F9081A0E0B1E09C931A
S11302D082958F70E82FF0E0E657FE4F80811196EB
S11302E08C931197E62FEF70F0E0ED56FE4F80816E
S11302F012968C93129762956F70E62FF0E0E65792
S1130300FE4F808113968C93089590E006C0E92FE8
S1130310F0E0E050FF4F80839F5F9430C0F3089576
S113032082E0809342041092430410924504109298
S1130330AD061092AE06109280009DE0909381006D
S1130340109289009EE49093880080936F0084E06B
S11303508093430408951F920F920FB60F921124B5
S11303602F933F934F938F939F93EF93FF93E0913A
S1130370B306F0E0E050FF4F40812091B30630E037
S11303802C5F3F4F81E090E002C0880F991F2A95AF
S1130390E2F780958BB948B98091B3068F5F80935B
S11303A0B3068091B306843010F01092B3068091A6
S11303B04304882331F080914304815080934304A3
S11303C02CC081E08093450484E08093430490B181
S11303D083B1877020914204211112C09F3F31F0F4
S11303E090959093AD0692E0909342048730A9F0E3
S11303F097E089278093AE0682E0809342040DC083
S11304009F3F41F4873031F48091420481508093BE
S1130410420403C082E080934204FF91EF919F91D4
S11304208F914F913F912F910F900FBE0F901F907E
S113043018951092C5008AE08093C40088E98093DF
S1130440C10086E08093C20008959091C00095FF9A
S1130450FCCF8093C6000895CF93DF93EC0103C0D3
S11304600E942502219688818111FACFDF91CF91D4
S11304700895CF93C82F82958F708A3020F0895CBD
S11304800E94250203C0805D0E9425028C2F8F707C
S11304908A3020F0895C0E94250203C0805D0E949E
S11304A02502CF910895CF93C82F892F0E94390236
S11304B08C2F0E943902CF910895EF92FF921F93DF
S11304C0CF93DF937C01992334F48DE20E942502BB
S11304D0F194E194F108C0E1D7E220E01EC0C70125
S11304E0BE010E94BD12162F611105C0211103C067
S11304F0C130D10529F480E3810F0E94250221E057
S11305001C9FC0011D9F900D1124E81AF90ACE0109
S11305106AE070E00E94BD12EB011C161D06FCF29D
S1130520DF91CF911F91FF90EF9008958F929F924A
S1130530AF92BF92CF92DF92EF92FF92CF93DF936D
S11305404B015C0199235CF48DE20E942502B09476
S1130550A09490948094811C911CA11CB11C0F2E1A
S1130560C12CFAECDF2EFAE9EF2EFBE3FF2EF02D7F
S1130570D0E02AC0C501B401A70196010E94D1129E
S1130580C22F211108C0D11106C081E0C816D104C0
S1130590E104F10429F480E38C0F0E942502D1E0E8
S11305A0AC2FB0E0A70196010E94F012861A970AB8
S11305B0A80AB90AC701B6012AE030E040E050E0D9
S11305C00E94D11269017A011C141D041E041F0427
S11305D08CF2DF91CF91FF90EF90DF90CF90BF909E
S11305E0AF909F908F900895CF93C82F8BE10E9476
S11305F025028BE50E94250283E30E94250280E305
S11306008C0F0E9425028DE60E942502CF91089549
S11306108BE991E00E942C0208951F920F920FB66D
S11306200F9211240F900FBE0F901F9018958FEF0B
S113063087B998E094B99CEF9AB911B882B997E058
S113064095B98BB90E9419020E9432010E9490014F
S1130650789408958BEF90E19EBF8DBF0E9417039D
S11306600E945700FFCFCF93DF93D82FC62F83E08C
S11306700E94F4028D2F0E9439028DE20E9425020D
S11306808C2F0E94390280E20E94250287E00E949A
S1130690F402DF91CF9108951F93CF93DF9386E007
S11306A00E94F4028FEA91E00E942C02D0E74FC02E
S11306B0ED2F0D2E000CFF0BEC0FF11DC7FDFA956D
S11306C0E55DF94FE0818E2F807E29F081E00E9464
S11306D0F40213E22CC0E3FF0EC0E770F0E0EB532A
S11306E0FE4F108182E00E94F402183501F581E08A
S11306F00E94F4021CC0E4FF0FC0E770F0E0EB536B
S1130700FE4F1081105E85E00E94F402183779F4E0
S113071081E00E94F4020BC0E11105C087E00E9451
S1130720F4021EE204C081E00E94F4021FE3812F60
S11307300E942502CF5F01C0C0E0C8300CF4B8CFDE
S11307408AE00E9425028DE00E942502D051DD231B
S11307509CF786E00E94F4028FEA91E00E942C024A
S113076087E00E94F402DF91CF911F910895EF92E8
S1130770FF920F931F93CF93DF93E82EF12C86E122
S11307808E9D80018F9D100D1124095B1B4FF80174
S1130790C081D1818EE991E00E942C02F801808110
S11307A091810E9453028CEA91E00E942C0200E0A5
S11307B010E005C00E94330324960F5F1F4FC7014A
S11307C0019626E1289FF001299FF00D1124E95B91
S11307D0FB4F80819181C817D90730F488818F3FFE
S11307E019F069816F3F31F78AEB91E00E942C0286
S11307F0C8010E945D020E940803DF91CF911F91FE
S11308000F91FF90EF9008950E942C0208950E948A
S1130810F40208950E94390208950E945D02089529
S11308200E9408030895CF93DF93603109F5EFE048
S1130830E80F9E2F987839F4F0E0E55DF94F908148
S1130840913109F477C0E1E1E80F9E2F987851F4D3
S1130850F0E0E55DF94F9081913109F46DC0ADEEA2
S1130860B1E02FC0ADEEB1E02CC0ADEEB1E029C0D7
S1130870EFEEE80F9E2F987839F4F0E0E55DF94F3C
S11308809081993009F45AC0E1EFE80F9E2F9878CF
S113089061F7F0E0E55DF94F9081993009F450C0BB
S11308A0ADEEB1E00EC0E80F9E2F987849F4F0E069
S11308B0E55DF94F2081962F9260291709F442C013
S11308C01196EC91E111EFCF462F4460CDECD1E0CD
S11308D02CC03E2FE80F9E2F987809F5AE2FB0E07C
S11308E0A55DB94F2C91962F9660291302C02CC098
S11308F0E30F9E2F987839F4AE2FB0E0A55DB94F81
S11309002C912223A9F391110AC0F0E0E55DF94F7F
S113091090814917D9F0262F25609217C9F02196A6
S11309209881913111F4462F4360E881E111D1CFD0
S113093080E00FC081E00DC081E00BC081E009C000
S113094081E007C081E005C081E003C081E001C00F
S113095081E0DF91CF91089580E006C0E82FF0E0B8
S1130960E55DF94F10828F5F8823C4F70895CF9314
S1130970DF93C82F87E293E00E94040486E1C89FB6
S1130980E0011124C95BDB4F8E819F810E940D041D
S11309900E94100489E393E00E9404048C819D81E9
S11309A00E940D040E9410048BE493E00E9404044E
S11309B08C890E940A040E9410048DE593E00E9431
S11309C004048D890E940A040E941004DF91CF91CF
S11309D00895682F70E086E1869FF001879FF00DEF
S11309E01124E95BFB4F17821682158214828FEF64
S11309F0858B848B90E04FC0892F887809F0985FAD
S1130A00E92FF0E0E55DF94F208123FF21C0E22FBB
S1130A10F0E0EE0FFF1FE950FD4F4081518186E168
S1130A20869FF001879FF00D1124E95BFB4FA481A1
S1130A30B5814A0F5B1F558344832E3059F5869F39
S1130A40F001879FF00D1124E95BFB4F958B22C0C9
S1130A5024FF20C0E22FF0E0EE0FFF1FE950FD4F0E
S1130A604081518186E1869FF001879FF00D11241A
S1130A70E95BFB4FA681B7814A0F5B1F578346830F
S1130A80263141F4869FF001879FF00D1124E95B24
S1130A90FB4F948B9F5F983708F4AECF08950E9464
S1130AA0AC04E7E4F4E08FE0808B85EB96E093837D
S1130AB08283918380838FEF848785878687878766
S1130AC01386128611861086118A17A2828B138AC6
S1130AD080E01DC0A82FB0E0E82FE770F0E0E957F0
S1130AE0FC4FE081A55DB94F9E2F98609C93F0E088
S1130AF0EE0FFF1FE157FC4F20813181E7E4F4E062
S1130B0044815581240F351F358324838F5F8830BA
S1130B1008F380E10FC0E82FF0E0E55DF94F99E0BC
S1130B209083E7E4F4E0248135812C593F4F3583E9
S1130B3024838F5F883178F380E60FC0E82FF0E0DC
S1130B40E55DF94F91E19083E7E4F4E02681378194
S1130B502C593F4F378326838F5F883678F380E79D
S1130B601DC0A82FB0E0E82FE770F0E0E957FC4F74
S1130B70E081A55DB94F9E2F90619C93F0E0EE0F4C
S1130B80FF1FE157FC4F20813181E7E4F4E0468107
S1130B905781240F351F378326838F5F883708F3E7
S1130BA080E00E94E90488E0809346041092AC0639
S1130BB081E08093B40683E08093650B1092AB06CA
S1130BC0089560E070E090E043C0892F887809F0D0
S1130BD0985F292F30E0F901E55DF94F40814C30F1
S1130BE028F44A3048F44930D9F031C0413119F180
S1130BF070F1443158F02BC0220F331FF901E95032
S1130C00FE4F20813181620F731F21C0220F331FD9
S1130C10F901E950FE4F20813181621B730B17C02B
S1130C20F9013896EE0FFF1FE950FE4F2081318104
S1130C30620F731F0CC0E0E7E927F0E03896EE0F6F
S1130C40FF1FE950FE4F20813181621B730B9F5FB0
S1130C50983708F4BACFE091AC0686E1E89FF0013A
S1130C601124E95BFB4F8481958126813781821BA6
S1130C70930B860F971F20914604283019F0919505
S1130C80819591090895EF92FF920F931F93CF934B
S1130C90E091AC0686E1E89FF0011124E95BFB4F8B
S1130CA00190F081E02DC0E0E6C18C2F0C2E000CE9
S1130CB0990B88789927892B09F0C85F0C2F0C2E83
S1130CC0000C110BD801A55DB94F8C91882309F450
S1130CD0D1C190914604282F292309F4CBC18770F0
S1130CE0833009F496C130F4813069F0823009F41C
S1130CF03AC16DC1853009F48FC108F4A5C08630AE
S1130D0009F4A5C064C1983019F490E19C0F02C0A5
S1130D1090EF9C0F88EF890F883640F0C083892FAD
S1130D208F70806A81833496C05FF8CFA92FB0E0BA
S1130D30A55DB94F8C91811129C02C2FC08391835B
S1130D40AF014C5F5F4F80914604883029F4C8316D
S1130D501CF480E28C0F0AC0803129F4C0362CF0D8
S1130D6080EE820F03C080E001C080E0882359F048
S1130D70A82FB0E0A55DB94F9C91911106C02483C2
S1130D808583389603C0FA0101C0FA018FE025C0BB
S1130D9020914604283019F49C2F980F02C09C2FF0
S1130DA0981B392F3878C1F4A92FB0E0A55DB94F4D
S1130DB03C9148E12427232379F0C083918334961E
S1130DC028EF290F283640F0C083892F8F70806A5E
S1130DD081833496C05FF8CF8E5F8231CCF28091EC
S1130DE04604883011F480E101C080EF282F880F79
S1130DF0330BA801420F531FA091AC0696E1A99FA3
S1130E00D0011124A95BBB4F51969C91892F90E08E
S1130E10481B590B4130510539F0820F931F801B39
S1130E20910B019709F0FBC0C083A091AC0686E149
S1130E30A89FD0011124A95BBB4F51968C9181834B
S1130E40349620E030E0EDC02DED31E0EAC0C4304E
S1130E5009F044C0983009F041C0A091AC0686E185
S1130E60A89FD0011124A95BBB4F50968C91282FC9
S1130E702370A1F181FF14C080912B068C3081F482
S1130E8080912C0681110CC080912D06811108C01F
S1130E9080912E06811104C0C08382E08183349640
S1130EA0A091AC0696E1A99FD0011124A95BBB4F88
S1130EB050968C9180FF57C0809132068C3009F097
S1130EC052C08091300681114EC08091310681114B
S1130ED04AC0C08386E08183349645C0C43709F094
S1130EE042C0903109F03FC0A091AC0686E1A89FB2
S1130EF0D0011124A95BBB4F50968C91982F9C7004
S1130F0091F183FF14C080919B06843181F4809118
S1130F109C0681110CC080919D06811108C08091AE
S1130F209E06811104C0C08382E781833496A09118
S1130F30AC0696E1A99FD0011124A95BBB4F509642
S1130F408C9182FF10C08091A206843161F480915B
S1130F50A006811108C08091A106811104C0C0833C
S1130F6086E781833496D801A55DB94F8C9187704B
S1130F70823039F40F2EFDEEEF2EF1E0FF2EF02D2E
S1130F801FC00F2EF3EEEF2EF1E0FF2EF02D18C050
S1130F908C0FAFEFEA1AFA0A982F987889F4282F61
S1130FA030E0255D394FD9012C91B801655D794F49
S1130FB0DB019C919223987119F4C0838183349648
S1130FC0D7018C918111E4CF20E030E02AC083E086
S1130FD08093AB0681E00E94070484EA93E00E94B8
S1130FE00404F801E55DF94F80810E940A0487EC4E
S1130FF093E00E9404048C2F0E940A0489E094E088
S11310000E94040487E00E9407040E944C0380E0CD
S11310105BC027ED31E005C02DEC31E002C020E0DB
S113102030E02115310511F525C04C2F8C0F19C066
S1131030A82FB0E0A55DB94F9C91911107C04083E2
S11310408183D9019C91890F34960BC0D801A55D89
S1131050B94F5C919523987139F440838183349618
S113106003C0982F987821F32F5F3F4FD9018C91BB
S11310708111DBCFCF5FC8370CF417CE8FEF80839D
S113108081838091AC0690E0AC014F5F5F4F26E115
S1131090249FD001259FB00D1124A95BBB4F11964D
S11310A0FC93EE931396FC93EE931297289FD00132
S11310B0299FB00D1124A95BBB4F2D913C9181E078
S11310C0E217F30709F480E0CF911F910F91FF908D
S11310D0EF900895EF92FF920F931F93CF93E091B7
S11310E0AC0686E1E89FF0011124E95BFB4FA08187
S11310F0B181C0E02DC18C2F0C2E000C990B887887
S11311009927892B09F0C85F0C2F0C2E000C110BAA
S1131110F801E55DF94F8081882309F418C19091A5
S11311204604282F292309F412C18770833009F457
S1131130DFC030F4813069F0823009F484C0B6C075
S1131140853009F4D8C008F47BC0863009F47BC02C
S1131150ADC0983019F490E19C0F02C090EF9C0F41
S113116088EF890F8836A0F1CC93892F8F70806A1D
S113117011968C9311971496C05FF6CF4091460454
S1131180483019F49C2F980F02C09C2F981B292FCC
S11311902878E1F4E92FF0E0E55DF94F308128E1AA
S11311A02427232399F0CC9311969C93119714969A
S11311B028EF290F283650F0CC93892F8F70806A3E
S11311C011968C9311971496C05FF6CF8E5F01C071
S11311D08FE082319CF280914604883011F480E1E2
S11311E001C080EF282F880F330BA801420F531F33
S11311F0E091AC0696E1E99FF0011124E95BFB4F15
S11312009189892F90E0481B590B4130510539F0E1
S1131210820F931F801B910B019709F06FC0CC9331
S1131220E091AC0686E1E89FF0011124E95BFB4FF5
S1131230818911968C931197149640E050E060C018
S11312404DED51E05DC0823039F40F2EFDEEEF2EEE
S1131250F1E0FF2EF02D23C00F2EF3EEEF2EF1E080
S1131260FF2EF02D1CC08C0F9FEFE91AF90A982F5E
S11312709878A9F4282F30E0255D394FF9012081B1
S1131280222369F0B801655D794FFB0190819223B7
S1131290987129F4CC9311968C9311971496F701B5
S11312A080818111E0CF40E050E02AC082E0809349
S11312B0AB0681E00E9407048DE993E00E940404D8
S11312C0F801E55DF94F80810E940A0487EC93E000
S11312D00E9404048C2F0E940A0489E094E00E9476
S11312E0040487E00E9407040E944C0380E058C075
S11312F047ED51E005C04DEC51E002C040E050E044
S11313004115510501F523C0282F3C2F8C0F16C021
S1131310E82FF0E0E55DF94F9081911102C0820F52
S11313200DC0F801E55DF94F20819223987149F4CD
S11313303C9311968C931197149603C0982F987828
S113134039F34F5F5F4FFA0180818111DDCFCF5FA9
S1131350C8370CF4D0CE8FEF8C9311968C931197E1
S11313608091AC0690E0AC014F5F5F4F26E1249F73
S1131370F001259FF00D1124E95BFB4FB183A0839D
S1131380B383A283289FF001299FF00D1124E95B08
S1131390FB4F2081318181E0A217B30709F480E07B
S11313A0CF911F910F91FF90EF900895CF92DF920C
S11313B0EF92FF920F931F93CF93DF93D091460444
S11313C098E1CD2EC926E091AC0696E1E99FF001A3
S11313D01124E95BFB4FC389C11118C0882319F09C
S11313E00E946A0802C00E944306E091AC06A6E18E
S11313F0EA9FF0011124E95BFB4F91E0938B20817C
S1131400318133832283882309F4EFC48091AC06AD
S113141090E0AC014F5F5F4F36E1349FF001359FA0
S1131420F00D1124E95BFB4F138A2FEF218B389FBA
S1131430D001399FB00D1124A95BBB4F16964D9175
S11314405C9117975783468314964D915C91159739
S11314505583448350963C915097308B128A1E9644
S11314602C931E971F962C931F9755962C91559746
S1131470258B54962C915497248B20914604283024
S113148021F4FD011589D12C92C426E1289FF00195
S1131490299FF00D1124E95BFB4F1489F4CF8C9143
S11314A0482F50E0FA01E55DF94F90819770943030
S11314B030F4923008F0FCC2913051F0AEC3953054
S11314C009F4F6C208F470C2963009F465C1A5C3E4
S11314D0FA01E55DF94F108286E1829FF001839F56
S11314E0F00D1124E95BFB4F81891196EC918E1369
S11314F045C0F0E090914604E55DF94F492F416005
S11315004083983011F4805101C0805FE82EF12CA3
S1131510F701E55DF94F10820C2D016086E1829F91
S1131520F001839FF00D1124E95BFB4F028B6C2DBE
S1131530812F0E941304882309F4A7C3E091AC0609
S1131540B6E1EB9FF0011124E95BFB4F82819381AB
S1131550EC012981A22FB0E0A55DB94F1C92D701FF
S1131560A55DB94F0C938881A82FB0E0A55DB94F54
S11315708091460481608C93128A92C3EE230CF00E
S11315807DC08E2F8F7090914604983011F440E7FF
S113159001C040E0E42EE82AE295EF70E7700E2FD8
S11315A0092BF12CF701E55DF94F808196E1929FBB
S11315B0D001939FB00D1124A95BBB4F52968C931D
S11315C000836C2D812F0E9413048823C9F0E091BD
S11315D0AC06D6E1ED9FF0011124E95BFB4FA2813B
S11315E0B381AC91B0E0A55DB94F809146048160B0
S11315F08C938289D701A55DB94F8C93128A50C30D
S1131600809146048830E9F48091AC0690E001961C
S1131610E02FF0E0EE0FFF1FE950FD4F20813181F4
S113162046E1489FF001499FF00D1124E95BFB4F0F
S113163084819581820F931F95838483DD24D394C1
S11316402FC38091AC0690E00196E02FF0E0EE0FFE
S1131650FF1FE950FD4F2081318146E1489FF00191
S1131660499FF00D1124E95BFB4F86819781820F1E
S1131670931F97838683DD24D39412C3F0E0E55D42
S1131680F94F808196E1929FF001939FF00D112410
S1131690E95BFB4F828B0280F381E02DE181F0E076
S11316A0E55DF94F80914604816080836C2D812F24
S11316B00E9413048823F1F0E091AC0686E1E89FD0
S11316C0F0011124E95BFB4F22813381D9018C9114
S11316D0A82FB0E0A55DB94F8091460481608C933A
S11316E0E9018981A82FB0E08289A55DB94F8C9367
S11316F0128AD6C280914604883031F52091AC0616
S113170030E096E1929FF001939FF00D1124E95B84
S1131710FB4F0280F381E02D91816081492F50E0DD
S1131720461B51094032510579F42F5F3F4F86E142
S1131730829FF001839FF00D1124E95BFB4F9051D0
S1131740918BDD24D394ACC2803109F0A1C2809185
S1131750AC0690E026E1289FF001299FF00D1124AA
S1131760E95BFB4F0280F381E02D2081418130E071
S1131770241B31092032310509F08DC2019626E17E
S1131780289FF001299FF00D1124E95BFB4F405F76
S1131790418BDD24D39484C290914604983009F09F
S11317A080C0843009F000C196E1969FF001979FB4
S11317B0F00D1124E95BFB4F80898C7F808B929F15
S11317C0F001939FF00D1124E95BFB4F0280F3813C
S11317D0E02D8181863059F56C2D84E00E9413043C
S11317E0811125C06C2D85E00E94130481111FC056
S11317F06C2D86E00E941304811119C08091AC06FF
S113180090E0019626E1289FF001299FF00D112414
S1131810E95BFB4F86E0858BEBE2F6E08EE08683A6
S113182014828CE085831782DD24D39439C2E0913D
S1131830AC06D6E1ED9FF0011124E95BFB4F028079
S1131840F381E02D8181823009F0AEC06C2D84E0FB
S11318500E9413048111A8C06C2D83E00E9413041C
S11318608111A2C06C2D82E00E94130481119CC0DE
S11318708091AC0690E0019626E1289FF001299F13
S1131880F00D1124E95BFB4F82E0858BEBE2F6E07F
S11318908EE0828314828CE083831082DD24D394CF
S11318A0FFC1843709F080C096E1969FF001979FAD
S11318B0F00D1124E95BFB4F8089837F808B929F1D
S11318C0F001939FF00D1124E95BFB4F0280F3813B
S11318D0E02D8181863769F56C2D84E70E9413041D
S11318E0811127C06C2D85E70E941304811121C04A
S11318F06C2D86E70E94130481111BC08091AC06F5
S113190090E0019626E1289FF001299FF00D112413
S1131910E95BFB4F86E7848B8EE08093A1061092EF
S11319209F068CE08093A0061092A206DD24D39437
S1131930B7C1E091AC0686E1E89FF0011124E95BB0
S1131940FB4F0280F381E02D8181823769F56C2D94
S113195084E70E941304811127C06C2D83E70E9441
S11319601304811121C06C2D82E70E94130481119C
S11319701BC08091AC0690E0019626E1289FF001FF
S1131980299FF00D1124E95BFB4F82E7848B8EE0E5
S113199080939D0610929F068CE080939E06109281
S11319A09B06DD24D3947CC1809146048830F9F4ED
S11319B02091AC0630E096E1929FF001939FF00DE8
S11319C01124E95BFB4F0280F381E02D908191119A
S11319D00EC02F5F3F4F86E1829FF001839FF00D81
S11319E01124E95BFB4F80898D7F808B61C0883037
S11319F0F9F42091AC0630E096E1929FF001939FB8
S1131A00F00D1124E95BFB4F0280F381E02D9081FE
S1131A10973071F42F5F3F4F86E1829FF001839FDF
S1131A20F00D1124E95BFB4F80898E7F808B40C0D1
S1131A308031F9F42091AC0630E096E1929FF001F8
S1131A40939FF00D1124E95BFB4F0280F381E02D9D
S1131A509081903771F42F5F3F4F86E1829FF001B0
S1131A60839FF00D1124E95BFB4F8089877F808B76
S1131A701FC08031E9F48091AC0690E026E1289FF4
S1131A80F001299FF00D1124E95BFB4F0280F381E3
S1131A90E02D2081273761F4019626E1289FF0018B
S1131AA0299FF00D1124E95BFB4F80898B7F808B8C
S1131AB08091AC0690E026E1289FF001299FF00D6B
S1131AC01124E95BFB4FA281B381EC91F0E0E55D69
S1131AD0F94F20812E3099F49C012F5F3F4F1196CE
S1131AE0EC91F0E0E55DF94F108146E1429FF00191
S1131AF0439FF00D1124E95BFB4F158B14C0263175
S1131B0091F49C012F5F3F4F1196EC91F0E0E55D5D
S1131B10F94F108146E1429FF001439FF00D1124DB
S1131B20E95BFB4F148B26E1289FF001299FF00D00
S1131B301124E95BFB4FA281B3811196AC91B0E013
S1131B40A55DB94F8C91828B82819381DC011196C2
S1131B50EC911197F0E02C91A22FB0E0A55DB94F64
S1131B602C91E55DF94F2083EC01E881F0E0E55D1F
S1131B70F94F10826C2D812F0E941304882309F4DD
S1131B808DC08091AC0690E066E1689FF001699F8A
S1131B90F00D1124E95BFB4F42815381DA012C9152
S1131BA0A22FB0E0EA01298130E0255D394FE90137
S1131BB02881A55DB94F2C93EA01A981B0E022895F
S1131BC0A55DB94F2C93128AAC014F5F5F4F2589F5
S1131BD0649FD001659FB00D1124A95BBB4F55963E
S1131BE02C935597248954962C932091460428309D
S1131BF051F426E1289FF001299FF00D1124E95B9F
S1131C00FB4F15894DC026E1289FF001299FF00D57
S1131C101124E95BFB4F148943C081E00E9407044F
S1131C2089EB93E00E940404E091AC06C6E1CE9FE8
S1131C30F0011124E95BFB4F0280F381E02DE08188
S1131C40F0E0E55DF94F80810E940A0486EC93E0A0
S1131C500E940404E091AC06CE9FF0011124E95BDC
S1131C60FB4F0280F381E02D80810E940A0489E009
S1131C7094E00E94040487E00E9407040E944C033D
S1131C8081E08093AB06C0E0B0C0DD24D39408C0EB
S1131C90DD24D39405C0DD24D39402C0DD24D39481
S1131CA0DD2009F463C08091AC0690E026E1289F12
S1131CB0F001299FF00D1124E95BFB4FA281B38150
S1131CC02C91268711962C91119727879D012C5FC3
S1131CD03F4F3383228320914604283009F5AC0119
S1131CE04F5F5F4F36E1389FF001399FF00D1124AB
S1131CF0E95BFB4FE289F0E0EE0FFF1FE950FD4F77
S1131D0060817181349FF001359FF00D1124E95BEE
S1131D10FB4F86819781861B970B9783868320C010
S1131D20AC014F5F5F4F36E1389FF001399FF00DF2
S1131D301124E95BFB4FE289F0E0EE0FFF1FE9504D
S1131D40FD4F60817181349FF001359FF00D1124A6
S1131D50E95BFB4F84819581861B970B9583848374
S1131D6088E1822780934604CD2D3FC08091AC0644
S1131D7090E0AC014F5F5F4F26E1289FF001299F5F
S1131D80F00D1124E95BFB4F8089249FD001259F2E
S1131D90B00D1124A95BBB4F50968C935097828150
S1131DA09381049693838283808950968C932091A7
S1131DB0AC0630E086E1829FF001839FF00D112490
S1131DC0E95BFB4FA281B381B9016F5F7F4F869FAF
S1131DD0F001879FF00D1124E95BFB4F8081918115
S1131DE0A817B90708F45BCBCD2D8C2FDF91CF91C9
S1131DF01F910F91FF90EF90DF90CF900895CF93B4
S1131E00DF934091AC0650E086E1849FF001859F0A
S1131E10F00D1124E95BFB4F8281938130914604DC
S1131E2028E1232720934604FC013497618166232B
S1131E304CF56F7070E0E1E0F0E0283011F0E0E084
S1131E40F0E06E2B7F2B6115710511F060E770E0F7
S1131E5036E1349FD001359FB00D1124A95BBB4FEF
S1131E6052963C915297FB01E55DF94F3083FC019A
S1131E703497E081F0E0E55DF94F216020835296CC
S1131E801C92A4C0E62FF0E0DF01A55DB94F3C91A0
S1131E90732F7770713041F576E1749FD001759F8F
S1131EA0B00D1124A95BBB4F51967C9167131CC0E4
S1131EB0E55DF94F1082FC013497E081F0E0E55DC7
S1131EC0F94F822F81608083283039F4E72FF0E0C6
S1131ED0E55EF94F81E1808379C0E72FF0E0E55CAE
S1131EE0F94F89E0808372C03E3051F5FC0134978C
S1131EF02081243029F52EE020932F06EF01E18183
S1131F00F0E086E1849FD001859FB00D1124A95B88
S1131F10BB4F52968C91E55DF94F80838981823065
S1131F2031F4EBE2F6E08CE0808313824FC086301C
S1131F3009F04CC0EBE2F6E08CE08783158246C0E2
S1131F40363159F5FC0134972081243731F526E1E7
S1131F5020939F06EF01E181F0E0249FD001259FAB
S1131F60B00D1124A95BBB4F52968C915297E55D3D
S1131F70F94F808352961C928981823731F484E12F
S1131F8080939B0610929E0621C08637F9F484E163
S1131F908093A2061092A00619C0FC013497A08178
S1131FA0B0E0A55DB94F3C93E181F0E086E1849F08
S1131FB0D001859FB00D1124A95BBB4F52968C9123
S1131FC05297E55DF94F808352961C92DF91CF9131
S1131FD00895CF93DF93E7E4F4E09FEF9487968727
S1131FE02081318133832283318997A1918B128A95
S1131FF0E82FF0E0EF01C55DD94F2881922F97704B
S1132000943038F4923008F040C0913009F449C05B
S11320101FC19530D1F120F0963009F499C018C150
S113202090914604983059F4811109C0A7E4B4E0B2
S113203050968C9150978D7F50968C9326C09830F3
S113204059F4873049F4A7E4B4E050968C91509742
S11320508E7F50968C9319C0903159F4803749F48F
S1132060A7E4B4E050968C915097877F50968C9358
S11320700CC0903151F4873741F4A7E4B4E0509692
S11320808C9150978B7F50968C93A62FB0E0A55DD2
S1132090B94F8C91809359042C93E55DF94F1082CC
S11320A0D7C06623FCF4A62FAF7080914604883015
S11320B011F4E0E701C0E0E0AE2B9A2F92959F70F7
S11320C0982B8091AC06EA2FF0E0E55DF94F208172
S11320D036E1839FD0011124A95BBB4F52962C9308
S11320E09083B6C0462F50E0DA01A55DB94F8C91BC
S11320F08093590480914604982F91609C93DF014A
S1132100A55DB94F1C9236130AC0883019F4DA0160
S1132110509702C0DA015096A55DB94F1C928830E1
S113212031F49F01241B350B2032310549F08031F5
S113213049F44E1B5F0B4032510531F0AFEF05C03F
S1132140A62F03C0AFEF01C0A62FA093580480C0F0
S1132150909146049830D1F58430A9F58091AC066D
S113216090E0AC014F5F5F4F36E1349FD001359F63
S1132170B00D1124A95BBB4F50962C9150972C7F26
S113218050962C93389FD001399FB00D1124A95B30
S1132190BB4F12960D90BC91A02D11968C91863058
S11321A049F4ABE2B6E08CE015968C93159717963C
S11321B01C9209C0823039F4ABE2B6E08CE013968D
S11321C08C9313971C9260935C0436C08091AC0688
S11321D090E026E1289FE001299FD00D1124C95BDE
S11321E0DB4FAA81BB812C91243721F5AC014F5FD1
S11321F05F4F36E1349FD001359FB00D1124A95BA8
S1132200BB4F50962C915097237F50962C93AA81C4
S1132210BB8111968C91863731F48CE08093A006B3
S11322201092A20607C0823729F48CE080939E06A0
S113223010929B0660935B04A62FB0E0A55DB94F96
S11322408C9180935904E55DF94F80818C931082C1
S113225080E00E94E9049091460488E189278093F4
S1132260460410925A04DF91CF910895EF92FF92A1
S11322700F931F93CF93DF93EC017B010E94E10541
S11322808C018091AF069091B006A091B106B091F7
S1132290B2060196A11DB11D8093AF069093B006BE
S11322A0A093B106B093B2060E151F050CF04BC0F7
S11322B0C017D1070CF08E01E091AC06E53108F0AF
S11322C042C086E1E89FF0011124E95BFB4F138AC9
S11322D030C08091AB06882339F00E94FF0E82ED56
S11322E093E00E9404042FC08091AC068F5F80931A
S11322F0AC0666277727601B710B882799278E19F0
S11323009F090E943611CC27DD27C81BD90B809169
S1132310AC0681508093AC060E94FF0EEC16FD06BD
S11323207CF08091AB0681110DC00C171D070CF4D5
S11323308E0181E090E00E94D6098111CACF03C0CA
S11323408E0101C08E01C801DF91CF911F910F91C1
S1132350FF90EF900895BF92CF92DF92EF92FF9299
S11323600F931F93CF93DF937C018B01E091AC0615
S11323708091B406E81720F0C7010E9436114CC0C2
S113238086E1E89FF0011124E95BFB4F138AB12C2D
S1132390C0E0D3E831C09091AC069F5F9093AC0647
S11323A0662777276E197F0988279927801B910B49
S11323B00E94AB11CC24DD24C81AD90A9091AC0632
S11323C091509093AC060E94FF0EBB24B394CC159D
S11323D0DD0594F4E091AC0686E1E89FF001112458
S11323E0E95BFB4F8685848787858587D386C2868C
S11323F00C151D0574F0E60180E090E00E94D609FA
S11324008111C9CFB11007C08091AC0690E09D57EF
S113241003C0C60101C0CE01DF91CF911F910F917E
S1132420FF90EF90DF90CF90BF9008950F931F938C
S1132430CF93DF931092AB068BED93E00E940404DC
S113244083E08093650B1092AF061092B006109251
S1132450B1061092B20681E08093B406C0E000E0B9
S113246013E863C082EF93E00E9404048091B406F1
S113247090E00E940D040E94100410925A04C0E0DF
S113248041C08091AC068F5F8093AC0660E07DE72D
S113249080E093E80E94AB11CC27DD27C81BD90B41
S11324A08091AC0681508093AC060E94FF0E0C17FD
S11324B01D071CF58091B40690E00E940D0488E489
S11324C091E00E94040407E414E0F801678586851E
S11324D00E94330388E491E00E940404CE010E9428
S11324E00D0489E094E00E940404F8018685848741
S11324F087858587D387C2878E018091AB06C1E02B
S1132500811107C080E090E00E94D6098111B9CF03
S113251001C0C1E0CC2381F08091AB0681110CC0D5
S11325208091B4068F5F8093B4069091B406809135
S1132530650B891708F096CFC1110EC0809146042F
S1132540883029F487EF93E00E94040410C08CE0E3
S113255094E00E9404040BC081E294E00E9404040D
S1132560C8010E940D0489E094E00E940404C8019B
S1132570DF91CF911F910F91089597FB072E16F4C9
S1132580009407D077FD09D00E94FB1207FC05D008
S11325903EF4909581959F4F0895709561957F4F76
S11325A00895052E97FB1EF400940E94E81257FD2F
S11325B007D00E940F1307FC03D04EF40C94E812CA
S11325C050954095309521953F4F4F4F5F4F08955B
S11325D090958095709561957F4F8F4F9F4F08958B
S11325E00E943113A59F900DB49F900DA49F800D60
S11325F0911D11240895AA1BBB1B51E107C0AA1FFA
S1132600BB1FA617B70710F0A61BB70B881F991F8F
S11326105A95A9F780959095BC01CD010895A1E242
S11326201A2EAA1BBB1BFD010DC0AA1FBB1FEE1F48
S1132630FF1FA217B307E407F50720F0A21BB30B93
S1132640E40BF50B661F771F881F991F1A9469F70F
S113265060957095809590959B01AC01BD01CF016B
S11326600895A29FB001B39FC001A39F700D811D67
S11326701124911DB29F700D811D1124911D089587
S1072680F894FFCFF8
S1132684FFFFFFFF1B5B33336D0A0D2D2D2D3D3DE5
S11326943D2057656C636F6D6520746F20477269C4
S11326A47A7A6C794F6E6543205620302E31203D62
S11326B43D3D2D2D2D0A0D0020537461636B3A208A
S11326C40020426F6172643A200020686D3A200051
S11326D44B657920707265737365642046554E4367
S11326E4203D200020204649454C44203D20004301
S11326F47269746963616C204572726F723A200066
S11327044E6F646573203D2000C0F9A4B099928291
S1132714F880908883C6A1868EC2890D0A004D6F05
S11327247665206C69737420617420000A0D2D2D64
S11327342D2D2D2D2D2D2D0A0D00202020636F7598
S11327446E743A200058504E4252514B581001F0C6
S1132754FF11F1EF0F000011F1EF0F00001001F071
S1132764FF00001001F0FF11F1EF0F00000E1F2114
S113277412F2EEDFE10000F6FFFBFFFBFFFDFFFDBD
S1132784FFFBFFFBFFF6FF00000000000000000059
S113279400000000000000FBFFFDFFFEFF0000003E
S11327A400FEFFFDFFFBFF02000300030000000026
S11327B400030003000200FBFFFFFF020005000505
S11327C4000200FFFFFBFF030004000400050005F2
S11327D400040004000300FEFF030007000A000ACB
S11327E40007000300FEFF0600070008000A000AB1
S11327F400080007000600FEFF030007000A000AA1
S11328040007000300FEFF0D000E000F001100116D
S1132814000F000E000D00FBFFFFFF020005000582
S1132824000200FFFFFBFF1400150019001C001C2C
S113283400190015001400FBFFFDFFFEFF0000005B
S113284400FEFFFDFFFBFF2B002C002F00320032A3
S1132854002F002C002B00F6FFFBFFFBFFFDFFFD08
S1132864FFFBFFFBFFF6FF00000000000000000078
S11328740000000000000000000000000000000050
S113288400000000000000000064002C014001F47A
S113289401840300000000000064002C014001F4E2
S11328A401840300000000426C61636B206D617459
S11328B4657269616C203D20005768697465206DF8
S11328C46174657269616C203D2000426C61636BC4
S11328D4204B696E6720202020203D200057686922
S11328E47465204B696E6720202020203D2000431E
S11328F46865636B426F61726420666F756E6420F1
S1132904706965636520000402030506030204007C
S11329140064002C014001F401840300004361704D
S1132924747572654D6F766547656E20666F756E56
S1132934642070696563652000466F756E64207059
S113294469656365200020206F6E206669656C6488
S113295420004552524F52200A0D000A0D5374614F
S11329647274207468696E6B696E67202E2E2E0A49
S11329740D00506C792000576869746520697320D0
S11329846D61746520212121200A0D00426C61636C
S11329946B206973206D61746520212121200A0D47
S11329A4000A0D2E2E2E20656E64207468696E6BE9
S11329B4696E6720626573742073636F7265203D6A
S10529C42000ED
S9030000FC
